:100000000C942A000C943F000C943F000C943F0089
:100010000C943F000C943F000C943F000C943F0064
:100020000C943F000C943F000C943F000C943F0054
:100030000C943F000C943F000C943F000C943F0044
:100040000C943F000C943F000C943F000C943F0034
:100050000C943F0011241FBECFE5D4E0DEBFCDBF1E
:1000600010E0A0E6B0E0E6E3F3E002C005900D92F8
:10007000AE36B107D9F70E9441000C9499010C9457
:1000800000000E94980080E690E00E94FE0061E07F
:1000900082E00E94680160E177E280E090E00E94E7
:1000A0000D01FFCFDF98882314F4AF9A01C0AF98F9
:1000B00086FF02C0AE9A01C0AE9885FF02C0AD9A1D
:1000C00001C0AD9884FF02C0AC9A01C0AC98AB9A55
:1000D000E9EFF0E03197F1F700C00000AB98E9EFED
:1000E000F0E03197F1F700C0000083FF02C0AF9A43
:1000F00001C0AF9882FF02C0AE9A01C0AE9881FFE6
:1001000002C0AD9A01C0AD9880FF02C0AC9A01C098
:10011000AC98AB9A89EF90E00197F1F700C000002E
:10012000AB98E9EFF0E03197F1F700C000000895D7
:1001300084B3886F84BBD79A81EE94E00197F1F77E
:1001400000C0000082E00E94520088E20E9452003B
:1001500081E00E9452008CE00E94520080E80E94E0
:10016000520087E893E10197F1F700C0000008957D
:10017000DF9A882314F4AF9A01C0AF9886FF02C0BB
:10018000AE9A01C0AE9885FF02C0AD9A01C0AD988D
:1001900084FF02C0AC9A01C0AC98AB9AE9EFF0E0E2
:1001A0003197F1F700C00000AB98E9EFF0E031972C
:1001B000F1F700C0000083FF02C0AF9A01C0AF9802
:1001C00082FF02C0AE9A01C0AE9881FF02C0AD9A14
:1001D00001C0AD9880FF02C0AC9A01C0AC98AB9A48
:1001E00089EF90E00197F1F700C00000AB98E9EFCC
:1001F000F0E03197F1F700C000000895CF93DF934E
:10020000EC018881882331F021960E94B800899101
:100210008111FBCFDF91CF910895BF92CF92DF92F2
:10022000EF92FF920F931F93CF93DF93CDB7DEB77B
:100230002A970FB6F894DEBF0FBECDBF61157105CA
:1002400081059105A9F1B12C0F2EFAE0CF2ED12C0A
:10025000E12CF12CF02D01E010E00C0F1D1F0B0D17
:10026000111DB7FC1A95A70196010E947701605DE8
:10027000F8016083622F732F842F952F21E02B0DBF
:10028000611571058105910511F0B22EE4CFBB20F7
:100290007CF0E1E0F0E0EC0FFD1FEB0DF11DB7FC91
:1002A000FA9580810E94B800BA94FFEFBF12F1CF97
:1002B0002A960FB6F894DEBF0FBECDBFDF91CF9167
:1002C0001F910F91FF90EF90DF90CF90BF90089516
:1002D00090E4899F600D1124862F815C0E9452005A
:1002E00083EF91E00197F1F700C000000895A1E2CB
:1002F0001A2EAA1BBB1BFD010DC0AA1FBB1FEE1FA0
:10030000FF1FA217B307E407F50720F0A21BB30BEA
:10031000E40BF50B661F771F881F991F1A9469F766
:1003200060957095809590959B01AC01BD01CF01C2
:060330000895F894FFCFD0
:0E03360061686D65642068617373616E00001C
:00000001FF
